{
  "_format": "hh3-artifact-1",
  "contractName": "ActionRouter",
  "sourceName": "contracts/ActionRouter.sol",
  "abi": [
    {
      "inputs": [
        {
          "internalType": "address",
          "name": "sender",
          "type": "address"
        }
      ],
      "name": "AccountUnauthorized",
      "type": "error"
    },
    {
      "inputs": [
        {
          "internalType": "address",
          "name": "targetContract",
          "type": "address"
        }
      ],
      "name": "ContractNotApproved",
      "type": "error"
    },
    {
      "inputs": [],
      "name": "DomainMismatch",
      "type": "error"
    },
    {
      "inputs": [],
      "name": "ECDSAInvalidSignature",
      "type": "error"
    },
    {
      "inputs": [
        {
          "internalType": "uint256",
          "name": "length",
          "type": "uint256"
        }
      ],
      "name": "ECDSAInvalidSignatureLength",
      "type": "error"
    },
    {
      "inputs": [
        {
          "internalType": "bytes32",
          "name": "s",
          "type": "bytes32"
        }
      ],
      "name": "ECDSAInvalidSignatureS",
      "type": "error"
    },
    {
      "inputs": [],
      "name": "ERC7579DecodingError",
      "type": "error"
    },
    {
      "inputs": [
        {
          "internalType": "ExecType",
          "name": "execType",
          "type": "bytes1"
        }
      ],
      "name": "ERC7579UnsupportedExecType",
      "type": "error"
    },
    {
      "inputs": [],
      "name": "FailedCall",
      "type": "error"
    },
    {
      "inputs": [],
      "name": "InvalidCallData",
      "type": "error"
    },
    {
      "inputs": [],
      "name": "InvalidSessionKey",
      "type": "error"
    },
    {
      "inputs": [],
      "name": "OutOfRangeAccess",
      "type": "error"
    },
    {
      "inputs": [],
      "name": "PaymentTransferFailed",
      "type": "error"
    },
    {
      "inputs": [
        {
          "internalType": "bytes4",
          "name": "selector",
          "type": "bytes4"
        }
      ],
      "name": "SelectorNotAllowed",
      "type": "error"
    },
    {
      "inputs": [],
      "name": "SessionExpired",
      "type": "error"
    },
    {
      "inputs": [],
      "name": "SessionInactive",
      "type": "error"
    },
    {
      "inputs": [],
      "name": "SessionNotFound",
      "type": "error"
    },
    {
      "inputs": [
        {
          "internalType": "address",
          "name": "target",
          "type": "address"
        }
      ],
      "name": "TargetNotAllowed",
      "type": "error"
    },
    {
      "inputs": [],
      "name": "UnsupportedExecutionMode",
      "type": "error"
    },
    {
      "anonymous": false,
      "inputs": [
        {
          "indexed": true,
          "internalType": "bytes32",
          "name": "sessionId",
          "type": "bytes32"
        },
        {
          "indexed": true,
          "internalType": "address",
          "name": "approvedContract",
          "type": "address"
        }
      ],
      "name": "ContractApproved",
      "type": "event"
    },
    {
      "anonymous": false,
      "inputs": [
        {
          "indexed": false,
          "internalType": "uint256",
          "name": "batchExecutionIndex",
          "type": "uint256"
        },
        {
          "indexed": false,
          "internalType": "bytes",
          "name": "returndata",
          "type": "bytes"
        }
      ],
      "name": "ERC7579TryExecuteFail",
      "type": "event"
    },
    {
      "anonymous": false,
      "inputs": [
        {
          "indexed": true,
          "internalType": "address",
          "name": "token",
          "type": "address"
        },
        {
          "indexed": true,
          "internalType": "address",
          "name": "from",
          "type": "address"
        },
        {
          "indexed": true,
          "internalType": "address",
          "name": "to",
          "type": "address"
        },
        {
          "indexed": false,
          "internalType": "uint256",
          "name": "value",
          "type": "uint256"
        },
        {
          "indexed": false,
          "internalType": "bytes32",
          "name": "nonce",
          "type": "bytes32"
        }
      ],
      "name": "PaymentSettled",
      "type": "event"
    },
    {
      "anonymous": false,
      "inputs": [
        {
          "indexed": true,
          "internalType": "bytes32",
          "name": "sessionId",
          "type": "bytes32"
        },
        {
          "indexed": true,
          "internalType": "address",
          "name": "sessionKey",
          "type": "address"
        },
        {
          "indexed": false,
          "internalType": "uint48",
          "name": "validUntil",
          "type": "uint48"
        }
      ],
      "name": "SessionGranted",
      "type": "event"
    },
    {
      "anonymous": false,
      "inputs": [
        {
          "indexed": true,
          "internalType": "bytes32",
          "name": "sessionId",
          "type": "bytes32"
        }
      ],
      "name": "SessionRevoked",
      "type": "event"
    },
    {
      "inputs": [
        {
          "internalType": "bytes32",
          "name": "sessionId",
          "type": "bytes32"
        },
        {
          "components": [
            {
              "internalType": "address",
              "name": "contractAddress",
              "type": "address"
            },
            {
              "internalType": "bytes32",
              "name": "nameHash",
              "type": "bytes32"
            },
            {
              "internalType": "bytes32",
              "name": "versionHash",
              "type": "bytes32"
            }
          ],
          "internalType": "struct AgentDelegator.ApprovedContract[]",
          "name": "contracts",
          "type": "tuple[]"
        }
      ],
      "name": "addApprovedContracts",
      "outputs": [],
      "stateMutability": "nonpayable",
      "type": "function"
    },
    {
      "inputs": [],
      "name": "entryPoint",
      "outputs": [
        {
          "internalType": "contract IEntryPoint",
          "name": "",
          "type": "address"
        }
      ],
      "stateMutability": "view",
      "type": "function"
    },
    {
      "inputs": [
        {
          "internalType": "bytes32",
          "name": "mode",
          "type": "bytes32"
        },
        {
          "internalType": "bytes",
          "name": "executionData",
          "type": "bytes"
        }
      ],
      "name": "execute",
      "outputs": [],
      "stateMutability": "payable",
      "type": "function"
    },
    {
      "inputs": [
        {
          "internalType": "bytes32",
          "name": "sessionId",
          "type": "bytes32"
        },
        {
          "internalType": "bytes32",
          "name": "mode",
          "type": "bytes32"
        },
        {
          "internalType": "bytes",
          "name": "executionData",
          "type": "bytes"
        },
        {
          "internalType": "bytes",
          "name": "sessionKeySignature",
          "type": "bytes"
        }
      ],
      "name": "executeWithSession",
      "outputs": [
        {
          "internalType": "bytes[]",
          "name": "",
          "type": "bytes[]"
        }
      ],
      "stateMutability": "nonpayable",
      "type": "function"
    },
    {
      "inputs": [
        {
          "internalType": "bytes32",
          "name": "sessionId",
          "type": "bytes32"
        },
        {
          "internalType": "address",
          "name": "contractAddr",
          "type": "address"
        }
      ],
      "name": "getContractDomain",
      "outputs": [
        {
          "internalType": "bytes32",
          "name": "nameHash",
          "type": "bytes32"
        },
        {
          "internalType": "bytes32",
          "name": "versionHash",
          "type": "bytes32"
        }
      ],
      "stateMutability": "view",
      "type": "function"
    },
    {
      "inputs": [
        {
          "internalType": "uint192",
          "name": "key",
          "type": "uint192"
        }
      ],
      "name": "getNonce",
      "outputs": [
        {
          "internalType": "uint256",
          "name": "",
          "type": "uint256"
        }
      ],
      "stateMutability": "view",
      "type": "function"
    },
    {
      "inputs": [],
      "name": "getNonce",
      "outputs": [
        {
          "internalType": "uint256",
          "name": "",
          "type": "uint256"
        }
      ],
      "stateMutability": "view",
      "type": "function"
    },
    {
      "inputs": [
        {
          "internalType": "bytes32",
          "name": "sessionId",
          "type": "bytes32"
        }
      ],
      "name": "getSession",
      "outputs": [
        {
          "components": [
            {
              "internalType": "address",
              "name": "sessionKey",
              "type": "address"
            },
            {
              "internalType": "address[]",
              "name": "allowedTargets",
              "type": "address[]"
            },
            {
              "internalType": "bytes4[]",
              "name": "allowedSelectors",
              "type": "bytes4[]"
            },
            {
              "internalType": "uint48",
              "name": "validAfter",
              "type": "uint48"
            },
            {
              "internalType": "uint48",
              "name": "validUntil",
              "type": "uint48"
            },
            {
              "internalType": "bool",
              "name": "active",
              "type": "bool"
            }
          ],
          "internalType": "struct AgentDelegator.Session",
          "name": "",
          "type": "tuple"
        }
      ],
      "stateMutability": "view",
      "type": "function"
    },
    {
      "inputs": [],
      "name": "getSessionNonce",
      "outputs": [
        {
          "internalType": "uint256",
          "name": "",
          "type": "uint256"
        }
      ],
      "stateMutability": "view",
      "type": "function"
    },
    {
      "inputs": [
        {
          "internalType": "address",
          "name": "sessionKey",
          "type": "address"
        },
        {
          "internalType": "address[]",
          "name": "allowedTargets",
          "type": "address[]"
        },
        {
          "internalType": "bytes4[]",
          "name": "allowedSelectors",
          "type": "bytes4[]"
        },
        {
          "internalType": "uint48",
          "name": "validAfter",
          "type": "uint48"
        },
        {
          "internalType": "uint48",
          "name": "validUntil",
          "type": "uint48"
        },
        {
          "components": [
            {
              "internalType": "address",
              "name": "contractAddress",
              "type": "address"
            },
            {
              "internalType": "bytes32",
              "name": "nameHash",
              "type": "bytes32"
            },
            {
              "internalType": "bytes32",
              "name": "versionHash",
              "type": "bytes32"
            }
          ],
          "internalType": "struct AgentDelegator.ApprovedContract[]",
          "name": "approvedContracts",
          "type": "tuple[]"
        }
      ],
      "name": "grantSession",
      "outputs": [
        {
          "internalType": "bytes32",
          "name": "sessionId",
          "type": "bytes32"
        }
      ],
      "stateMutability": "nonpayable",
      "type": "function"
    },
    {
      "inputs": [
        {
          "internalType": "bytes32",
          "name": "sessionId",
          "type": "bytes32"
        },
        {
          "internalType": "address",
          "name": "contractAddr",
          "type": "address"
        }
      ],
      "name": "isContractApproved",
      "outputs": [
        {
          "internalType": "bool",
          "name": "",
          "type": "bool"
        }
      ],
      "stateMutability": "view",
      "type": "function"
    },
    {
      "inputs": [
        {
          "internalType": "bytes32",
          "name": "sessionId",
          "type": "bytes32"
        }
      ],
      "name": "isSessionValid",
      "outputs": [
        {
          "internalType": "bool",
          "name": "",
          "type": "bool"
        }
      ],
      "stateMutability": "view",
      "type": "function"
    },
    {
      "inputs": [
        {
          "internalType": "bytes32",
          "name": "hash",
          "type": "bytes32"
        },
        {
          "internalType": "bytes",
          "name": "signature",
          "type": "bytes"
        }
      ],
      "name": "isValidSignature",
      "outputs": [
        {
          "internalType": "bytes4",
          "name": "",
          "type": "bytes4"
        }
      ],
      "stateMutability": "view",
      "type": "function"
    },
    {
      "inputs": [
        {
          "internalType": "bytes32",
          "name": "sessionId",
          "type": "bytes32"
        }
      ],
      "name": "revokeSession",
      "outputs": [],
      "stateMutability": "nonpayable",
      "type": "function"
    },
    {
      "inputs": [
        {
          "internalType": "address",
          "name": "token",
          "type": "address"
        },
        {
          "internalType": "address",
          "name": "from",
          "type": "address"
        },
        {
          "internalType": "address",
          "name": "to",
          "type": "address"
        },
        {
          "internalType": "uint256",
          "name": "value",
          "type": "uint256"
        },
        {
          "internalType": "uint256",
          "name": "validAfter",
          "type": "uint256"
        },
        {
          "internalType": "uint256",
          "name": "validBefore",
          "type": "uint256"
        },
        {
          "internalType": "bytes32",
          "name": "nonce",
          "type": "bytes32"
        },
        {
          "internalType": "bytes",
          "name": "signature",
          "type": "bytes"
        }
      ],
      "name": "settlePayment",
      "outputs": [],
      "stateMutability": "nonpayable",
      "type": "function"
    },
    {
      "inputs": [
        {
          "internalType": "bytes32",
          "name": "mode",
          "type": "bytes32"
        }
      ],
      "name": "supportsExecutionMode",
      "outputs": [
        {
          "internalType": "bool",
          "name": "result",
          "type": "bool"
        }
      ],
      "stateMutability": "view",
      "type": "function"
    },
    {
      "inputs": [
        {
          "components": [
            {
              "internalType": "address",
              "name": "sender",
              "type": "address"
            },
            {
              "internalType": "uint256",
              "name": "nonce",
              "type": "uint256"
            },
            {
              "internalType": "bytes",
              "name": "initCode",
              "type": "bytes"
            },
            {
              "internalType": "bytes",
              "name": "callData",
              "type": "bytes"
            },
            {
              "internalType": "bytes32",
              "name": "accountGasLimits",
              "type": "bytes32"
            },
            {
              "internalType": "uint256",
              "name": "preVerificationGas",
              "type": "uint256"
            },
            {
              "internalType": "bytes32",
              "name": "gasFees",
              "type": "bytes32"
            },
            {
              "internalType": "bytes",
              "name": "paymasterAndData",
              "type": "bytes"
            },
            {
              "internalType": "bytes",
              "name": "signature",
              "type": "bytes"
            }
          ],
          "internalType": "struct PackedUserOperation",
          "name": "userOp",
          "type": "tuple"
        },
        {
          "internalType": "bytes32",
          "name": "userOpHash",
          "type": "bytes32"
        },
        {
          "internalType": "uint256",
          "name": "missingAccountFunds",
          "type": "uint256"
        }
      ],
      "name": "validateUserOp",
      "outputs": [
        {
          "internalType": "uint256",
          "name": "",
          "type": "uint256"
        }
      ],
      "stateMutability": "nonpayable",
      "type": "function"
    },
    {
      "stateMutability": "payable",
      "type": "receive"
    }
  ],
  "bytecode": "0x6080604052348015600e575f5ffd5b50612d298061001c5f395ff3fe6080604052600436106100fd575f3560e01c8063b0d691fe11610092578063da0a6a3a11610062578063da0a6a3a146102ea578063e9ae5c531461034c578063f25aa1151461035f578063f33860ae1461037e578063fa333d9b1461039d575f5ffd5b8063b0d691fe1461025a578063b90d8f9714610288578063d03c7914146102a7578063d087d288146102d6575f5ffd5b80633e1b0812116100cd5780633e1b0812146101ba578063508a05df146101d95780639a37bad31461020d578063a7fed38514610239575f5ffd5b806310c10432146101085780631626ba7e1461013757806319822f7c1461016f57806339b240bd1461018e575f5ffd5b3661010457005b5f5ffd5b348015610113575f5ffd5b505f516020612cb45f395f51905f52545b6040519081526020015b60405180910390f35b348015610142575f5ffd5b50610156610151366004612293565b6103bc565b6040516001600160e01b0319909116815260200161012e565b34801561017a575f5ffd5b506101246101893660046122da565b6103ed565b348015610199575f5ffd5b506101ad6101a8366004612328565b610414565b60405161012e9190612383565b3480156101c5575f5ffd5b506101246101d436600461244b565b610590565b3480156101e4575f5ffd5b506101f86101f3366004612485565b610623565b6040805192835260208301919091520161012e565b348015610218575f5ffd5b5061022c6102273660046124b3565b610673565b60405161012e9190612561565b348015610244575f5ffd5b50610258610253366004612328565b610917565b005b348015610265575f5ffd5b50604051734337084d9e255ff0702461cf8895ce9e3b5ff108815260200161012e565b348015610293575f5ffd5b506102586102a23660046125c4565b610998565b3480156102b2575f5ffd5b506102c66102c1366004612328565b610a6a565b604051901515815260200161012e565b3480156102e1575f5ffd5b50610124610ac1565b3480156102f5575f5ffd5b506102c6610304366004612485565b5f9182527fa0c1d2d7f72a881653f7765d29f368af07d2f3cfc87dd25869b0087cfa6e7902602090815260408084206001600160a01b03939093168452919052902054151590565b61025861035a366004612293565b610ad0565b34801561036a575f5ffd5b506102586103793660046126a1565b610b32565b348015610389575f5ffd5b50610124610398366004612735565b610c7c565b3480156103a8575f5ffd5b506102c66103b7366004612328565b610eb0565b5f6103c8848484610f28565b156103db5750630b135d3f60e11b6103e6565b506001600160e01b03195b9392505050565b5f6103f6611256565b5f6104018585611299565b905061040c836112e9565b949350505050565b6040805160c080820183525f808352606060208085018290528486018290529084018290526080840182905260a084018290528582525f516020612cd45f395f51905f528152908490208451928301855280546001600160a01b03168352600181018054865181850281018501909752808752949593949193858401939092908301828280156104cb57602002820191905f5260205f20905b81546001600160a01b031681526001909101906020018083116104ad575b505050505081526020016002820180548060200260200160405190810160405280929190818152602001828054801561054d57602002820191905f5260205f20905f905b82829054906101000a900460e01b6001600160e01b0319168152602001906004019060208260030104928301926001038202915080841161050f5790505b50505091835250506003919091015465ffffffffffff8082166020840152600160301b8204166040830152600160601b900460ff16151560609091015292915050565b5f734337084d9e255ff0702461cf8895ce9e3b5ff108604051631aab3f0d60e11b81523060048201526001600160c01b03841660248201526001600160a01b0391909116906335567e1a90604401602060405180830381865afa1580156105f9573d5f5f3e3d5ffd5b505050506040513d601f19601f8201168201806040525081019061061d91906127ef565b92915050565b5f8281527fa0c1d2d7f72a881653f7765d29f368af07d2f3cfc87dd25869b0087cfa6e7902602090815260408083206001600160a01b0385168452909152902080546001909101545b9250929050565b5f8681525f516020612cd45f395f51905f526020526040902080546060915f516020612cb45f395f51905f52916001600160a01b03166106c6576040516396c95f8160e01b815260040160405180910390fd5b6003810154600160601b900460ff166106f25760405163f9be14df60e01b815260040160405180910390fd5b600381015465ffffffffffff1642101561071f57604051630fe82d2560e11b815260040160405180910390fd5b6003810154600160301b900465ffffffffffff1642111561075357604051630fe82d2560e11b815260040160405180910390fd5b5f6107d37f74d29ef921e5def18b3904a9f5e392858cf6815618896b41d4bbb74ced1be7cc8b8b8b8b60405161078a929190612806565b6040519081900381206107b89493929160200193845260208401929092526040830152606082015260800190565b6040516020818303038152906040528051906020012061133a565b90505f61081787878080601f0160208091040260200160405190810160405280939291908181526020018383808284375f9201919091525086939250506114059050565b83549091506001600160a01b0380831691161461084757604051635f8874dd60e11b815260040160405180910390fd5b610887838b8b8b8080601f0160208091040260200160405190810160405280939291908181526020018383808284375f9201919091525061142d92505050565b6108ab5760405163e356c1d360e01b81525f60048201526024015b60405180910390fd5b896001600160f81b031981165f036108d4576108c88a8a5f611575565b9550505050505061090d565b6001600160f81b03198116600160f81b036108f4576108c88a8a5f6115f1565b604051637f18127560e01b815260040160405180910390fd5b9695505050505050565b3330146109365760405162461bcd60e51b81526004016108a290612815565b5f8181525f516020612cd45f395f51905f526020526040808220600301805460ff60601b19169055515f516020612cb45f395f51905f529183917fcc0f7e7f309149dce2db74723f771f7d96cad368d91763e945dc3956c4dbfb049190a25050565b60405163cf09299560e01b81526001600160a01b038a169063cf092995906109d2908b908b908b908b908b908b908b908b90600401612839565b5f604051808303815f87803b1580156109e9575f5ffd5b505af11580156109fb573d5f5f3e3d5ffd5b50505050866001600160a01b0316886001600160a01b03168a6001600160a01b03167f3ee2eba05240594314a2f3c3c7887dc3ec01bdda1e4a3fe3e09b1ad37bd0cfd88987604051610a57929190918252602082015260400190565b60405180910390a4505050505050505050565b5f5f5f5f610a7785611721565b50919450925090506001600160f81b03198316600160f81b148015610aa457506001600160f81b03198216155b8015610ab857506001600160e01b03198116155b95945050505050565b5f610acb5f610590565b905090565b610adc3384848461175f565b610afb57604051637cf8632b60e01b81523360048201526024016108a2565b610b0483610a6a565b610b2157604051637f18127560e01b815260040160405180910390fd5b610b2c82825f6115f1565b50505050565b333014610b515760405162461bcd60e51b81526004016108a290612815565b5f8381525f516020612cd45f395f51905f526020526040902080545f516020612cb45f395f51905f5291906001600160a01b0316610ba2576040516396c95f8160e01b815260040160405180910390fd5b5f5b83811015610c745736858583818110610bbf57610bbf6128a3565b60408051808201825260206060909302949094018281018035865282820135848701525f8d815260028b019094529183209095509250610bff90856128b7565b6001600160a01b031681526020808201929092526040015f208251815591810151600190920191909155610c35908201826128b7565b6001600160a01b0316877fe1d8c7e5efae247e5e67616514cacbe18e0c178ccba07548dadf3ce06cb2e4a760405160405180910390a350600101610ba4565b505050505050565b5f333014610c9c5760405162461bcd60e51b81526004016108a290612815565b5f516020612cb45f395f51905f52805430908c90835f610cbb836128d2565b90915550604080516001600160a01b0394851660208201529390921691830191909152606082015260800160408051808303601f1901815291815281516020928301205f81815260018581019094529190912080546001600160a01b0319166001600160a01b038f1617815590935090610d389082018c8c612137565b50610d47600282018a8a612198565b5060038101805460ff60601b1965ffffffffffff898116600160301b026bffffffffffffffffffffffff19909316908b16179190911716600160601b1790555f5b84811015610e585736868683818110610da357610da36128a3565b60408051808201825260206060909302949094018281018035865282820135848701525f8b815260028b019094529183209095509250610de390856128b7565b6001600160a01b031681526020808201929092526040015f208251815591810151600190920191909155610e19908201826128b7565b6001600160a01b0316857fe1d8c7e5efae247e5e67616514cacbe18e0c178ccba07548dadf3ce06cb2e4a760405160405180910390a350600101610d88565b5060405165ffffffffffff871681526001600160a01b038d169084907f02cca6ae699bb69aae32ed5ceed897840d68e1fc36a941a1dd922c28a431b6ef9060200160405180910390a350509998505050505050505050565b5f8181525f516020612cd45f395f51905f52602052604081206003810154600160601b900460ff168015610eed575080546001600160a01b031615155b8015610f055750600381015465ffffffffffff164210155b80156103e6575060030154600160301b900465ffffffffffff1642111592915050565b5f6041829003610f4457610f3d8484846117b7565b90506103e6565b6061829003610f5457505f6103e6565b609582900361124d575f610f6b60208285876128f6565b610f749161291d565b90505f610f856034602086886128f6565b610f8e9161293a565b60601c90505f610fa26054603487896128f6565b610fab9161291d565b9050365f610fbd60956054898b6128f6565b915091505f610fd65f516020612cb45f395f51905f5290565b5f87815260018201602052604090208054919250906001600160a01b0316611007575f9750505050505050506103e6565b6003810154600160601b900460ff16611029575f9750505050505050506103e6565b600381015465ffffffffffff1642101561104c575f9750505050505050506103e6565b6003810154600160301b900465ffffffffffff16421115611076575f9750505050505050506103e6565b5f87815260028301602090815260408083206001600160a01b038a168452909152902080546110af575f985050505050505050506103e6565b80546001820154604080517f8b73c3c69bb8fe3d512ecc4cf759cc79239f7b179b0ffacaa9a75d522b39400f60208201529081019290925260608201524660808201526001600160a01b03881660a08201525f9060c0016040516020818303038152906040528051906020012090505f818860405160200161114892919061190160f01b81526002810192909252602282015260420190565b6040516020818303038152906040528051906020012090508d8114611179575f9a50505050505050505050506103e6565b604080517f755e6dead33781b40b6a931f95573b9dd6bf297ae5a5718d95e3e6ec0bc8baf560208201526001600160a01b038b1691810191909152606081018990525f906080016040516020818303038152906040528051906020012090505f6111e28261133a565b90505f6112268a8a8080601f0160208091040260200160405190810160405280939291908181526020018383808284375f9201919091525086939250506114059050565b96546001600160a01b039788169716969096149c506103e69b505050505050505050505050565b505f9392505050565b33734337084d9e255ff0702461cf8895ce9e3b5ff108811461129657604051637cf8632b60e01b81526001600160a01b03821660048201526024016108a2565b50565b5f36816112aa610100860186612987565b909250905060418190036112cb576112c28585611830565b9250505061061d565b60618190036112de576112c2858561185b565b506001949350505050565b8015611296576040515f90339083908381818185875af1925050503d805f811461132e576040519150601f19603f3d011682016040523d82523d5f602084013e611333565b606091505b5050505050565b5f61061d6113e5604080517f8b73c3c69bb8fe3d512ecc4cf759cc79239f7b179b0ffacaa9a75d522b39400f60208201527f05b9393939661776162da61204d34cc06dcce3d71b365b141caf6a1b2a58d5ba918101919091527fc89efdaa54c0f20c7adf612882df0950f5a951637e0307cdcb4c672f298b8bc660608201524660808201523060a08201525f9060c00160405160208183030381529060405280519060200120905090565b8360405161190160f01b8152600281019290925260228201526042902090565b5f5f5f5f6114138686611a39565b9250925092506114238282611a82565b5090949350505050565b5f826001600160f81b0319811682036114b557603483511015611453575f9150506103e6565b6014830151835160405160331990910180825260548601602083015f5b83811015611488578281015182820152602001611470565b509091016040525061149a8783611b3e565b80156114ab57506114ab8782611b97565b93505050506103e6565b6001600160f81b03198116600160f81b0361156b575f838060200190518101906114df9190612a5b565b90505f5b815181101561155f5761151287838381518110611502576115026128a3565b60200260200101515f0151611b3e565b611521575f93505050506103e6565b61154887838381518110611537576115376128a3565b602002602001015160400151611b97565b611557575f93505050506103e6565b6001016114e3565b506001925050506103e6565b505f949350505050565b60605f5f365f6115858888611c34565b6040805160018082528183019092529498509296509094509250816020015b60608152602001906001900390816115a45790505094506115c95f8786868686611c84565b855f815181106115db576115db6128a3565b6020026020010181905250505050509392505050565b6060365f6115ff8686611d16565b9092509050806001600160401b0381111561161c5761161c6129c9565b60405190808252806020026020018201604052801561164f57816020015b606081526020019060019003908161163a5790505b5092505f5b81811015611717576116f28186858585818110611673576116736128a3565b90506020028101906116859190612bb5565b6116939060208101906128b7565b8686868181106116a5576116a56128a3565b90506020028101906116b79190612bb5565b602001358787878181106116cd576116cd6128a3565b90506020028101906116df9190612bb5565b6116ed906040810190612987565b611c84565b848281518110611704576117046128a3565b6020908102919091010152600101611654565b5050509392505050565b5f5f5f5f61172f855f611ddb565b61173a866001611ddb565b611745876006611e13565b61175088600a611e4b565b93509350935093509193509193565b5f306001600160a01b038616036117785750600161040c565b734337084d9e255ff0702461cf8895ce9e3b5ff107196001600160a01b038616016117a55750600161040c565b505050506001600160a01b0316301490565b5f5f5f6117f98686868080601f0160208091040260200160405190810160405280939291908181526020018383808284375f92019190915250611a3992505050565b509092509050306001600160a01b03831614801561090d57505f81600381111561182557611825612bd3565b149695505050505050565b5f61184882611843610100860186612987565b610f28565b6118535760016103e6565b5f9392505050565b5f368161186c610100860186612987565b90925090505f61187f60208284866128f6565b6118889161291d565b9050365f61189a6061602086886128f6565b915091505f6118b35f516020612cb45f395f51905f5290565b5f85815260018201602052604090208054919250906001600160a01b03166118e557600197505050505050505061061d565b6003810154600160601b900460ff1661190857600197505050505050505061061d565b604080517f2889bfebb755decce1f1f8447a565db4fbb162d8c5a2dcff422678d0f2b547236020820152908101869052606081018a90525f906080016040516020818303038152906040528051906020012090505f6119668261133a565b90505f6119aa87878080601f0160208091040260200160405190810160405280939291908181526020018383808284375f9201919091525086939250506114059050565b84549091506001600160a01b038083169116146119d45760019a505050505050505050505061061d565b6119ed848e80606001906119e89190612987565b611e86565b611a045760019a505050505050505050505061061d565b6003840154611a289060019065ffffffffffff80821691600160301b900416611f07565b9d9c50505050505050505050505050565b5f5f5f8351604103611a70576020840151604085015160608601515f1a611a6288828585611f18565b955095509550505050611a7b565b505081515f91506002905b9250925092565b5f826003811115611a9557611a95612bd3565b03611a9e575050565b6001826003811115611ab257611ab2612bd3565b03611ad05760405163f645eedf60e01b815260040160405180910390fd5b6002826003811115611ae457611ae4612bd3565b03611b055760405163fce698f760e01b8152600481018290526024016108a2565b6003826003811115611b1957611b19612bd3565b03611b3a576040516335e2f38360e21b8152600481018290526024016108a2565b5050565b5f805b600184015481101561124d57826001600160a01b0316846001018281548110611b6c57611b6c6128a3565b5f918252602090912001546001600160a01b031603611b8f57600191505061061d565b600101611b41565b60028201545f908103611bac5750600161061d565b600482511015611bbe5750600161061d565b60208201515f5b600285015481101561156b57816001600160e01b031916856002018281548110611bf157611bf16128a3565b905f5260205f2090600891828204019190066004029054906101000a900460e01b6001600160e01b03191603611c2c5760019250505061061d565b600101611bc5565b5f803681611c4560148287896128f6565b611c4e9161293a565b60601c9350611c616034601487896128f6565b611c6a9161291d565b9250611c7985603481896128f6565b949793965094505050565b60605f806001600160a01b03871615611c9d5786611c9f565b305b6001600160a01b0316868686604051611cb9929190612806565b5f6040518083038185875af1925050503d805f8114611cf3576040519150601f19603f3d011682016040523d82523d5f602084013e611cf8565b606091505b5091509150611d0989898484611fe0565b9998505050505050505050565b365f826020811015611d3b5760405163eb0bcc5d60e01b815260040160405180910390fd5b5f611d4960208287896128f6565b611d529161291d565b9050601f198201811115611d795760405163eb0bcc5d60e01b815260040160405180910390fd5b5f611d896020830183888a6128f6565b611d929161291d565b90506001600160401b03811180611db0575080602002602083850303105b15611dce5760405163eb0bcc5d60e01b815260040160405180910390fd5b9501602001959350505050565b5f601f8260ff161115611e0157604051631dd4bb1b60e11b815260040160405180910390fd5b506008021b6001600160f81b03191690565b5f601c8260ff161115611e3957604051631dd4bb1b60e11b815260040160405180910390fd5b506008021b6001600160e01b03191690565b5f600a8260ff161115611e7157604051631dd4bb1b60e11b815260040160405180910390fd5b506008021b69ffffffffffffffffffff191690565b5f6004821015611e9757505f6103e6565b5f611ea560048285876128f6565b611eae91612be7565b90506001600160e01b0319811663e9ae5c5360e01b14611ed1575f9150506103e6565b5f80611ee085600481896128f6565b810190611eed9190612c1d565b91509150611efc87838361142d565b979650505050505050565b5f61040c8415156001188484612087565b5f80807f7fffffffffffffffffffffffffffffff5d576e7357a4501ddfe92f46681b20a0841115611f5157505f91506003905082611fd6565b604080515f808252602082018084528a905260ff891692820192909252606081018790526080810186905260019060a0016020604051602081039080840390855afa158015611fa2573d5f5f3e3d5ffd5b5050604051601f1901519150506001600160a01b038116611fcd57505f925060019150829050611fd6565b92505f91508190505b9450945094915050565b60606001600160f81b0319841661200157611ffb83836120d1565b5061207f565b6001600160f81b03198416600160f81b0361205a5782612055577f2eea2f51f83910481f4b5ba28b7003a6e045d4b59f67dfff8d4c901194050089858360405161204c929190612c9b565b60405180910390a15b61207f565b6040516323a2408560e01b81526001600160f81b0319851660048201526024016108a2565b509392505050565b5f61040c8460601b6120b28460d01b8660d01b6001600160d01b0319166120ed90919063ffffffff16565b6001600160a01b0319169060601c6001600160a01b0319919091161790565b6060826120e6576120e18261210f565b61061d565b508061061d565b65ffffffffffff60a01b60309190911c166001600160d01b0319919091161790565b80511561211e57805160208201fd5b60405163d6bda27560e01b815260040160405180910390fd5b828054828255905f5260205f20908101928215612188579160200282015b828111156121885781546001600160a01b0319166001600160a01b03843516178255602090920191600190910190612155565b50612194929150612242565b5090565b828054828255905f5260205f2090600701600890048101928215612188579160200282015f5b838211156122095783356001600160e01b03191683826101000a81548163ffffffff021916908360e01c021790555092602001926004016020816003010492830192600103026121be565b80156122395782816101000a81549063ffffffff0219169055600401602081600301049283019260010302612209565b50506121949291505b5b80821115612194575f8155600101612243565b5f5f83601f840112612266575f5ffd5b5081356001600160401b0381111561227c575f5ffd5b60208301915083602082850101111561066c575f5ffd5b5f5f5f604084860312156122a5575f5ffd5b8335925060208401356001600160401b038111156122c1575f5ffd5b6122cd86828701612256565b9497909650939450505050565b5f5f5f606084860312156122ec575f5ffd5b83356001600160401b03811115612301575f5ffd5b84016101208187031215612313575f5ffd5b95602085013595506040909401359392505050565b5f60208284031215612338575f5ffd5b5035919050565b5f8151808452602084019350602083015f5b828110156123795781516001600160e01b031916865260209586019590910190600101612351565b5093949350505050565b602080825282516001600160a01b0316828201528281015160c06040840152805160e084018190525f92919091019082906101008501905b808310156123e65783516001600160a01b0316825260209384019360019390930192909101906123bb565b506040860151858203601f190160608701529250612404818461233f565b925050506060840151612421608085018265ffffffffffff169052565b50608084015165ffffffffffff811660a08501525060a084015180151560c0850152509392505050565b5f6020828403121561245b575f5ffd5b81356001600160c01b03811681146103e6575f5ffd5b6001600160a01b0381168114611296575f5ffd5b5f5f60408385031215612496575f5ffd5b8235915060208301356124a881612471565b809150509250929050565b5f5f5f5f5f5f608087890312156124c8575f5ffd5b863595506020870135945060408701356001600160401b038111156124eb575f5ffd5b6124f789828a01612256565b90955093505060608701356001600160401b03811115612515575f5ffd5b61252189828a01612256565b979a9699509497509295939492505050565b5f81518084528060208401602086015e5f602082860101526020601f19601f83011685010191505092915050565b5f602082016020835280845180835260408501915060408160051b8601019250602086015f5b828110156125b857603f198786030184526125a3858351612533565b94506020938401939190910190600101612587565b50929695505050505050565b5f5f5f5f5f5f5f5f5f6101008a8c0312156125dd575f5ffd5b89356125e881612471565b985060208a01356125f881612471565b975060408a013561260881612471565b965060608a0135955060808a0135945060a08a0135935060c08a0135925060e08a01356001600160401b0381111561263e575f5ffd5b61264a8c828d01612256565b915080935050809150509295985092959850929598565b5f5f83601f840112612671575f5ffd5b5081356001600160401b03811115612687575f5ffd5b60208301915083602060608302850101111561066c575f5ffd5b5f5f5f604084860312156126b3575f5ffd5b8335925060208401356001600160401b038111156126cf575f5ffd5b6122cd86828701612661565b5f5f83601f8401126126eb575f5ffd5b5081356001600160401b03811115612701575f5ffd5b6020830191508360208260051b850101111561066c575f5ffd5b803565ffffffffffff81168114612730575f5ffd5b919050565b5f5f5f5f5f5f5f5f5f60c08a8c03121561274d575f5ffd5b893561275881612471565b985060208a01356001600160401b03811115612772575f5ffd5b61277e8c828d016126db565b90995097505060408a01356001600160401b0381111561279c575f5ffd5b6127a88c828d016126db565b90975095506127bb905060608b0161271b565b93506127c960808b0161271b565b925060a08a01356001600160401b038111156127e3575f5ffd5b61264a8c828d01612661565b5f602082840312156127ff575f5ffd5b5051919050565b818382375f9101908152919050565b6020808252600a908201526927b7363c9037bbb732b960b11b604082015260600190565b6001600160a01b0389811682528816602082015260408101879052606081018690526080810185905260a0810184905260e060c08201819052810182905281836101008301375f81830161010090810191909152601f909201601f19160101979650505050505050565b634e487b7160e01b5f52603260045260245ffd5b5f602082840312156128c7575f5ffd5b81356103e681612471565b5f600182016128ef57634e487b7160e01b5f52601160045260245ffd5b5060010190565b5f5f85851115612904575f5ffd5b83861115612910575f5ffd5b5050820193919092039150565b8035602083101561061d575f19602084900360031b1b1692915050565b80356bffffffffffffffffffffffff198116906014841015612980576bffffffffffffffffffffffff196bffffffffffffffffffffffff198560140360031b1b82161691505b5092915050565b5f5f8335601e1984360301811261299c575f5ffd5b8301803591506001600160401b038211156129b5575f5ffd5b60200191503681900382131561066c575f5ffd5b634e487b7160e01b5f52604160045260245ffd5b604051606081016001600160401b03811182821017156129ff576129ff6129c9565b60405290565b604051601f8201601f191681016001600160401b0381118282101715612a2d57612a2d6129c9565b604052919050565b5f6001600160401b03821115612a4d57612a4d6129c9565b50601f01601f191660200190565b5f60208284031215612a6b575f5ffd5b81516001600160401b03811115612a80575f5ffd5b8201601f81018413612a90575f5ffd5b80516001600160401b03811115612aa957612aa96129c9565b8060051b612ab960208201612a05565b91825260208184018101929081019087841115612ad4575f5ffd5b6020850192505b83831015611efc5782516001600160401b03811115612af8575f5ffd5b85016060818a03601f19011215612b0d575f5ffd5b612b156129dd565b6020820151612b2381612471565b81526040820151602082015260608201516001600160401b03811115612b47575f5ffd5b60208184010192505089601f830112612b5e575f5ffd5b8151612b71612b6c82612a35565b612a05565b8181528b6020838601011115612b85575f5ffd5b8160208501602083015e5f6020838301015280604084015250508084525050602082019150602083019250612adb565b5f8235605e19833603018112612bc9575f5ffd5b9190910192915050565b634e487b7160e01b5f52602160045260245ffd5b80356001600160e01b03198116906004841015612980576001600160e01b031960049490940360031b84901b1690921692915050565b5f5f60408385031215612c2e575f5ffd5b8235915060208301356001600160401b03811115612c4a575f5ffd5b8301601f81018513612c5a575f5ffd5b8035612c68612b6c82612a35565b818152866020838501011115612c7c575f5ffd5b816020840160208301375f602083830101528093505050509250929050565b828152604060208201525f61040c604083018461253356fea0c1d2d7f72a881653f7765d29f368af07d2f3cfc87dd25869b0087cfa6e7900a0c1d2d7f72a881653f7765d29f368af07d2f3cfc87dd25869b0087cfa6e7901a2646970667358221220c9deebc90b2af125d8b76ac6b2e0d7decd6dc12074b9ef9ddf98c721158f25ad64736f6c634300081d0033",
  "linkReferences": {},
  "deployedLinkReferences": {},
  "immutableReferences": {},
  "inputSourceName": "project/contracts/ActionRouter.sol",
  "buildInfoId": "solc-0_8_29-0aaee6c968b37713114201bbecacce1d606e71e2"
}